:100000000C942A000C943F000C943F000C943F0089
:100010000C943F000C943F000C943F000C943F0064
:100020000C943F000C943F000C943F000C943F0054
:100030000C943F000C943F000C943F000C943F0044
:100040000C943F000C943F000C943F000C943F0034
:100050000C943F0011241FBECFE5D8E0DEBFCDBF1A
:1000600010E0A0E6B0E0EEEEF1E002C005900D92E7
:10007000A037B107D9F70E94E7000C94F5000C9463
:1000800000000F931F93CF93DF93A8E6B0E040E00A
:1000900050E001E010E012BA22B38C911296B80140
:1000A00002C0660F771F8A95E2F7CB01822B82BBD5
:1000B000E0E6F0E0C1E0D0E060E070E003C06F5F38
:1000C0007F4F219680B32081329690E0022E02C0AD
:1000D000959587950A94E2F780FF3EC0C80102C05B
:1000E000880F991F2A95E2F79C0180B390E0822344
:1000F0009323892BD1F741305105B1F024F44115F8
:10010000510541F029C042305105C1F0433051053D
:10011000F9F022C06115710551F16130710549F1A5
:1001200062307105C9F427C06115710531F1613084
:10013000710529F16230710579F423C061157105EB
:1001400011F16130710509F16230710529F41FC0A8
:1001500061307105F1F01FC0C430D1050CF4AFCF90
:100160004F5F5F4F4430510509F095CF19C087E3C9
:1001700017C088E315C089E313C084E311C085E389
:100180000FC086E30DC081E30BC082E309C083E3A7
:1001900007C080E305C0C430D1050CF490CFE6CF92
:1001A000DF91CF911F910F9108958FEF81BB8AB39B
:1001B00083608ABB89EF90E00197F1F700C00000EF
:1001C00087EA91E60197F1F700C00000089581B336
:1001D0008F6081BB81B38F7081BB0E94D500CFEF50
:0E01E0000E944100CABB8ABBFBCFF894FFCF40
:1001EE0004000500060007000000010002000300E5
:00000001FF
